{
	"Patika-Solidity/library.sol": {
		"TestArray": {
			"abi": [
				{
					"inputs": [
						{
							"internalType": "uint256",
							"name": "",
							"type": "uint256"
						}
					],
					"name": "arr",
					"outputs": [
						{
							"internalType": "uint256",
							"name": "",
							"type": "uint256"
						}
					],
					"stateMutability": "view",
					"type": "function"
				},
				{
					"inputs": [],
					"name": "testFind",
					"outputs": [
						{
							"internalType": "uint256",
							"name": "i",
							"type": "uint256"
						}
					],
					"stateMutability": "view",
					"type": "function"
				}
			],
			"devdoc": {
				"kind": "dev",
				"methods": {},
				"version": 1
			},
			"evm": {
				"assembly": "    /* \"Patika-Solidity/library.sol\":586:813  contract TestArray {... */\n  mstore(0x40, 0x80)\n    /* \"Patika-Solidity/library.sol\":644:671  uint[] public arr = [3,2,1] */\n  mload(0x40)\n  dup1\n  0x60\n  add\n  0x40\n  mstore\n  dup1\n    /* \"Patika-Solidity/library.sol\":665:666  3 */\n  0x03\n    /* \"Patika-Solidity/library.sol\":644:671  uint[] public arr = [3,2,1] */\n  0xff\n  and\n  dup2\n  mstore\n  0x20\n  add\n    /* \"Patika-Solidity/library.sol\":667:668  2 */\n  0x02\n    /* \"Patika-Solidity/library.sol\":644:671  uint[] public arr = [3,2,1] */\n  0xff\n  and\n  dup2\n  mstore\n  0x20\n  add\n    /* \"Patika-Solidity/library.sol\":669:670  1 */\n  0x01\n    /* \"Patika-Solidity/library.sol\":644:671  uint[] public arr = [3,2,1] */\n  0xff\n  and\n  dup2\n  mstore\n  pop\n  0x00\n  swap1\n  0x03\n  tag_1\n  swap3\n  swap2\n  swap1\n  tag_2\n  jump\t// in\ntag_1:\n  pop\n    /* \"Patika-Solidity/library.sol\":586:813  contract TestArray {... */\n  callvalue\n  dup1\n  iszero\n  tag_3\n  jumpi\n  0x00\n  dup1\n  revert\ntag_3:\n  pop\n  jump(tag_4)\ntag_2:\n  dup3\n  dup1\n  sload\n  dup3\n  dup3\n  sstore\n  swap1\n  0x00\n  mstore\n  keccak256(0x00, 0x20)\n  swap1\n  dup2\n  add\n  swap3\n  dup3\n  iszero\n  tag_5\n  jumpi\n  swap2\n  0x20\n  mul\n  dup3\n  add\ntag_6:\n  dup3\n  dup2\n  gt\n  iszero\n  tag_7\n  jumpi\n  dup3\n  mload\n  dup3\n  swap1\n  0xff\n  and\n  swap1\n  sstore\n  swap2\n  0x20\n  add\n  swap2\n  swap1\n  0x01\n  add\n  swap1\n  jump(tag_6)\ntag_7:\ntag_5:\n  pop\n  swap1\n  pop\n  tag_8\n  swap2\n  swap1\n  tag_9\n  jump\t// in\ntag_8:\n  pop\n  swap1\n  jump\t// out\ntag_9:\ntag_10:\n  dup1\n  dup3\n  gt\n  iszero\n  tag_11\n  jumpi\n  0x00\n  dup2\n  0x00\n  swap1\n  sstore\n  pop\n  0x01\n  add\n  jump(tag_10)\ntag_11:\n  pop\n  swap1\n  jump\t// out\ntag_4:\n  dataSize(sub_0)\n  dup1\n  dataOffset(sub_0)\n  0x00\n  codecopy\n  0x00\n  return\nstop\n\nsub_0: assembly {\n        /* \"Patika-Solidity/library.sol\":586:813  contract TestArray {... */\n      mstore(0x40, 0x80)\n      callvalue\n      dup1\n      iszero\n      tag_1\n      jumpi\n      0x00\n      dup1\n      revert\n    tag_1:\n      pop\n      jumpi(tag_2, lt(calldatasize, 0x04))\n      shr(0xe0, calldataload(0x00))\n      dup1\n      0x71e5ee5f\n      eq\n      tag_3\n      jumpi\n      dup1\n      0xa973e27c\n      eq\n      tag_4\n      jumpi\n    tag_2:\n      0x00\n      dup1\n      revert\n        /* \"Patika-Solidity/library.sol\":644:671  uint[] public arr = [3,2,1] */\n    tag_3:\n      tag_5\n      0x04\n      dup1\n      calldatasize\n      sub\n      dup2\n      add\n      swap1\n      tag_6\n      swap2\n      swap1\n      tag_7\n      jump\t// in\n    tag_6:\n      tag_8\n      jump\t// in\n    tag_5:\n      mload(0x40)\n      tag_9\n      swap2\n      swap1\n      tag_10\n      jump\t// in\n    tag_9:\n      mload(0x40)\n      dup1\n      swap2\n      sub\n      swap1\n      return\n        /* \"Patika-Solidity/library.sol\":680:808  function testFind() external view returns (uint i) {... */\n    tag_4:\n      tag_11\n      tag_12\n      jump\t// in\n    tag_11:\n      mload(0x40)\n      tag_13\n      swap2\n      swap1\n      tag_10\n      jump\t// in\n    tag_13:\n      mload(0x40)\n      dup1\n      swap2\n      sub\n      swap1\n      return\n        /* \"Patika-Solidity/library.sol\":644:671  uint[] public arr = [3,2,1] */\n    tag_8:\n      0x00\n      dup2\n      dup2\n      sload\n      dup2\n      lt\n      tag_14\n      jumpi\n      0x00\n      dup1\n      revert\n    tag_14:\n      swap1\n      0x00\n      mstore\n      keccak256(0x00, 0x20)\n      add\n      0x00\n      swap2\n      pop\n      swap1\n      pop\n      sload\n      dup2\n      jump\t// out\n        /* \"Patika-Solidity/library.sol\":680:808  function testFind() external view returns (uint i) {... */\n    tag_12:\n        /* \"Patika-Solidity/library.sol\":723:729  uint i */\n      0x00\n        /* \"Patika-Solidity/library.sol\":789:800  arr.find(3) */\n      tag_17\n        /* \"Patika-Solidity/library.sol\":798:799  3 */\n      0x03\n        /* \"Patika-Solidity/library.sol\":789:792  arr */\n      0x00\n        /* \"Patika-Solidity/library.sol\":789:797  arr.find */\n      tag_18\n      swap1\n        /* \"Patika-Solidity/library.sol\":789:800  arr.find(3) */\n      swap2\n      swap1\n      0xffffffff\n      and\n      jump\t// in\n    tag_17:\n        /* \"Patika-Solidity/library.sol\":782:800  return arr.find(3) */\n      swap1\n      pop\n        /* \"Patika-Solidity/library.sol\":680:808  function testFind() external view returns (uint i) {... */\n      swap1\n      jump\t// out\n        /* \"Patika-Solidity/library.sol\":338:579  function find(uint[] storage arr, uint x) internal view returns (uint){... */\n    tag_18:\n        /* \"Patika-Solidity/library.sol\":403:407  uint */\n      0x00\n        /* \"Patika-Solidity/library.sol\":424:430  uint i */\n      dup1\n        /* \"Patika-Solidity/library.sol\":431:432  0 */\n      0x00\n        /* \"Patika-Solidity/library.sol\":424:432  uint i=0 */\n      swap1\n      pop\n        /* \"Patika-Solidity/library.sol\":419:541  for (uint i=0; i < arr.length; i++) {... */\n    tag_20:\n        /* \"Patika-Solidity/library.sol\":438:441  arr */\n      dup4\n        /* \"Patika-Solidity/library.sol\":438:448  arr.length */\n      dup1\n      sload\n      swap1\n      pop\n        /* \"Patika-Solidity/library.sol\":434:435  i */\n      dup2\n        /* \"Patika-Solidity/library.sol\":434:448  i < arr.length */\n      lt\n        /* \"Patika-Solidity/library.sol\":419:541  for (uint i=0; i < arr.length; i++) {... */\n      iszero\n      tag_21\n      jumpi\n        /* \"Patika-Solidity/library.sol\":484:485  x */\n      dup3\n        /* \"Patika-Solidity/library.sol\":474:477  arr */\n      dup5\n        /* \"Patika-Solidity/library.sol\":478:479  i */\n      dup3\n        /* \"Patika-Solidity/library.sol\":474:480  arr[i] */\n      dup2\n      sload\n      dup2\n      lt\n      tag_23\n      jumpi\n      tag_24\n      tag_25\n      jump\t// in\n    tag_24:\n    tag_23:\n      swap1\n      0x00\n      mstore\n      keccak256(0x00, 0x20)\n      add\n      sload\n        /* \"Patika-Solidity/library.sol\":474:485  arr[i] == x */\n      sub\n        /* \"Patika-Solidity/library.sol\":470:530  if (arr[i] == x) {... */\n      tag_27\n      jumpi\n        /* \"Patika-Solidity/library.sol\":513:514  i */\n      dup1\n        /* \"Patika-Solidity/library.sol\":506:514  return i */\n      swap2\n      pop\n      pop\n      jump(tag_19)\n        /* \"Patika-Solidity/library.sol\":470:530  if (arr[i] == x) {... */\n    tag_27:\n        /* \"Patika-Solidity/library.sol\":450:453  i++ */\n      dup1\n      dup1\n      tag_28\n      swap1\n      tag_29\n      jump\t// in\n    tag_28:\n      swap2\n      pop\n      pop\n        /* \"Patika-Solidity/library.sol\":419:541  for (uint i=0; i < arr.length; i++) {... */\n      jump(tag_20)\n    tag_21:\n      pop\n        /* \"Patika-Solidity/library.sol\":551:571  revert (\"not found\") */\n      mload(0x40)\n      0x08c379a000000000000000000000000000000000000000000000000000000000\n      dup2\n      mstore\n      0x04\n      add\n      tag_30\n      swap1\n      tag_31\n      jump\t// in\n    tag_30:\n      mload(0x40)\n      dup1\n      swap2\n      sub\n      swap1\n      revert\n        /* \"Patika-Solidity/library.sol\":338:579  function find(uint[] storage arr, uint x) internal view returns (uint){... */\n    tag_19:\n      swap3\n      swap2\n      pop\n      pop\n      jump\t// out\n        /* \"#utility.yul\":88:205   */\n    tag_33:\n        /* \"#utility.yul\":197:198   */\n      0x00\n        /* \"#utility.yul\":194:195   */\n      dup1\n        /* \"#utility.yul\":187:199   */\n      revert\n        /* \"#utility.yul\":334:411   */\n    tag_35:\n        /* \"#utility.yul\":371:378   */\n      0x00\n        /* \"#utility.yul\":400:405   */\n      dup2\n        /* \"#utility.yul\":389:405   */\n      swap1\n      pop\n        /* \"#utility.yul\":334:411   */\n      swap2\n      swap1\n      pop\n      jump\t// out\n        /* \"#utility.yul\":417:539   */\n    tag_36:\n        /* \"#utility.yul\":490:514   */\n      tag_49\n        /* \"#utility.yul\":508:513   */\n      dup2\n        /* \"#utility.yul\":490:514   */\n      tag_35\n      jump\t// in\n    tag_49:\n        /* \"#utility.yul\":483:488   */\n      dup2\n        /* \"#utility.yul\":480:515   */\n      eq\n        /* \"#utility.yul\":470:533   */\n      tag_50\n      jumpi\n        /* \"#utility.yul\":529:530   */\n      0x00\n        /* \"#utility.yul\":526:527   */\n      dup1\n        /* \"#utility.yul\":519:531   */\n      revert\n        /* \"#utility.yul\":470:533   */\n    tag_50:\n        /* \"#utility.yul\":417:539   */\n      pop\n      jump\t// out\n        /* \"#utility.yul\":545:684   */\n    tag_37:\n        /* \"#utility.yul\":591:596   */\n      0x00\n        /* \"#utility.yul\":629:635   */\n      dup2\n        /* \"#utility.yul\":616:636   */\n      calldataload\n        /* \"#utility.yul\":607:636   */\n      swap1\n      pop\n        /* \"#utility.yul\":645:678   */\n      tag_52\n        /* \"#utility.yul\":672:677   */\n      dup2\n        /* \"#utility.yul\":645:678   */\n      tag_36\n      jump\t// in\n    tag_52:\n        /* \"#utility.yul\":545:684   */\n      swap3\n      swap2\n      pop\n      pop\n      jump\t// out\n        /* \"#utility.yul\":690:1019   */\n    tag_7:\n        /* \"#utility.yul\":749:755   */\n      0x00\n        /* \"#utility.yul\":798:800   */\n      0x20\n        /* \"#utility.yul\":786:795   */\n      dup3\n        /* \"#utility.yul\":777:784   */\n      dup5\n        /* \"#utility.yul\":773:796   */\n      sub\n        /* \"#utility.yul\":769:801   */\n      slt\n        /* \"#utility.yul\":766:885   */\n      iszero\n      tag_54\n      jumpi\n        /* \"#utility.yul\":804:883   */\n      tag_55\n      tag_33\n      jump\t// in\n    tag_55:\n        /* \"#utility.yul\":766:885   */\n    tag_54:\n        /* \"#utility.yul\":924:925   */\n      0x00\n        /* \"#utility.yul\":949:1002   */\n      tag_56\n        /* \"#utility.yul\":994:1001   */\n      dup5\n        /* \"#utility.yul\":985:991   */\n      dup3\n        /* \"#utility.yul\":974:983   */\n      dup6\n        /* \"#utility.yul\":970:992   */\n      add\n        /* \"#utility.yul\":949:1002   */\n      tag_37\n      jump\t// in\n    tag_56:\n        /* \"#utility.yul\":939:1002   */\n      swap2\n      pop\n        /* \"#utility.yul\":895:1012   */\n      pop\n        /* \"#utility.yul\":690:1019   */\n      swap3\n      swap2\n      pop\n      pop\n      jump\t// out\n        /* \"#utility.yul\":1025:1143   */\n    tag_38:\n        /* \"#utility.yul\":1112:1136   */\n      tag_58\n        /* \"#utility.yul\":1130:1135   */\n      dup2\n        /* \"#utility.yul\":1112:1136   */\n      tag_35\n      jump\t// in\n    tag_58:\n        /* \"#utility.yul\":1107:1110   */\n      dup3\n        /* \"#utility.yul\":1100:1137   */\n      mstore\n        /* \"#utility.yul\":1025:1143   */\n      pop\n      pop\n      jump\t// out\n        /* \"#utility.yul\":1149:1371   */\n    tag_10:\n        /* \"#utility.yul\":1242:1246   */\n      0x00\n        /* \"#utility.yul\":1280:1282   */\n      0x20\n        /* \"#utility.yul\":1269:1278   */\n      dup3\n        /* \"#utility.yul\":1265:1283   */\n      add\n        /* \"#utility.yul\":1257:1283   */\n      swap1\n      pop\n        /* \"#utility.yul\":1293:1364   */\n      tag_60\n        /* \"#utility.yul\":1361:1362   */\n      0x00\n        /* \"#utility.yul\":1350:1359   */\n      dup4\n        /* \"#utility.yul\":1346:1363   */\n      add\n        /* \"#utility.yul\":1337:1343   */\n      dup5\n        /* \"#utility.yul\":1293:1364   */\n      tag_38\n      jump\t// in\n    tag_60:\n        /* \"#utility.yul\":1149:1371   */\n      swap3\n      swap2\n      pop\n      pop\n      jump\t// out\n        /* \"#utility.yul\":1377:1557   */\n    tag_25:\n        /* \"#utility.yul\":1425:1502   */\n      0x4e487b7100000000000000000000000000000000000000000000000000000000\n        /* \"#utility.yul\":1422:1423   */\n      0x00\n        /* \"#utility.yul\":1415:1503   */\n      mstore\n        /* \"#utility.yul\":1522:1526   */\n      0x32\n        /* \"#utility.yul\":1519:1520   */\n      0x04\n        /* \"#utility.yul\":1512:1527   */\n      mstore\n        /* \"#utility.yul\":1546:1550   */\n      0x24\n        /* \"#utility.yul\":1543:1544   */\n      0x00\n        /* \"#utility.yul\":1536:1551   */\n      revert\n        /* \"#utility.yul\":1563:1743   */\n    tag_39:\n        /* \"#utility.yul\":1611:1688   */\n      0x4e487b7100000000000000000000000000000000000000000000000000000000\n        /* \"#utility.yul\":1608:1609   */\n      0x00\n        /* \"#utility.yul\":1601:1689   */\n      mstore\n        /* \"#utility.yul\":1708:1712   */\n      0x11\n        /* \"#utility.yul\":1705:1706   */\n      0x04\n        /* \"#utility.yul\":1698:1713   */\n      mstore\n        /* \"#utility.yul\":1732:1736   */\n      0x24\n        /* \"#utility.yul\":1729:1730   */\n      0x00\n        /* \"#utility.yul\":1722:1737   */\n      revert\n        /* \"#utility.yul\":1749:1982   */\n    tag_29:\n        /* \"#utility.yul\":1788:1791   */\n      0x00\n        /* \"#utility.yul\":1811:1835   */\n      tag_64\n        /* \"#utility.yul\":1829:1834   */\n      dup3\n        /* \"#utility.yul\":1811:1835   */\n      tag_35\n      jump\t// in\n    tag_64:\n        /* \"#utility.yul\":1802:1835   */\n      swap2\n      pop\n        /* \"#utility.yul\":1857:1923   */\n      0xffffffffffffffffffffffffffffffffffffffffffffffffffffffffffffffff\n        /* \"#utility.yul\":1850:1855   */\n      dup3\n        /* \"#utility.yul\":1847:1924   */\n      sub\n        /* \"#utility.yul\":1844:1947   */\n      tag_65\n      jumpi\n        /* \"#utility.yul\":1927:1945   */\n      tag_66\n      tag_39\n      jump\t// in\n    tag_66:\n        /* \"#utility.yul\":1844:1947   */\n    tag_65:\n        /* \"#utility.yul\":1974:1975   */\n      0x01\n        /* \"#utility.yul\":1967:1972   */\n      dup3\n        /* \"#utility.yul\":1963:1976   */\n      add\n        /* \"#utility.yul\":1956:1976   */\n      swap1\n      pop\n        /* \"#utility.yul\":1749:1982   */\n      swap2\n      swap1\n      pop\n      jump\t// out\n        /* \"#utility.yul\":1988:2157   */\n    tag_40:\n        /* \"#utility.yul\":2072:2083   */\n      0x00\n        /* \"#utility.yul\":2106:2112   */\n      dup3\n        /* \"#utility.yul\":2101:2104   */\n      dup3\n        /* \"#utility.yul\":2094:2113   */\n      mstore\n        /* \"#utility.yul\":2146:2150   */\n      0x20\n        /* \"#utility.yul\":2141:2144   */\n      dup3\n        /* \"#utility.yul\":2137:2151   */\n      add\n        /* \"#utility.yul\":2122:2151   */\n      swap1\n      pop\n        /* \"#utility.yul\":1988:2157   */\n      swap3\n      swap2\n      pop\n      pop\n      jump\t// out\n        /* \"#utility.yul\":2163:2322   */\n    tag_41:\n        /* \"#utility.yul\":2303:2314   */\n      0x6e6f7420666f756e640000000000000000000000000000000000000000000000\n        /* \"#utility.yul\":2299:2300   */\n      0x00\n        /* \"#utility.yul\":2291:2297   */\n      dup3\n        /* \"#utility.yul\":2287:2301   */\n      add\n        /* \"#utility.yul\":2280:2315   */\n      mstore\n        /* \"#utility.yul\":2163:2322   */\n      pop\n      jump\t// out\n        /* \"#utility.yul\":2328:2693   */\n    tag_42:\n        /* \"#utility.yul\":2470:2473   */\n      0x00\n        /* \"#utility.yul\":2491:2557   */\n      tag_70\n        /* \"#utility.yul\":2555:2556   */\n      0x09\n        /* \"#utility.yul\":2550:2553   */\n      dup4\n        /* \"#utility.yul\":2491:2557   */\n      tag_40\n      jump\t// in\n    tag_70:\n        /* \"#utility.yul\":2484:2557   */\n      swap2\n      pop\n        /* \"#utility.yul\":2566:2659   */\n      tag_71\n        /* \"#utility.yul\":2655:2658   */\n      dup3\n        /* \"#utility.yul\":2566:2659   */\n      tag_41\n      jump\t// in\n    tag_71:\n        /* \"#utility.yul\":2684:2686   */\n      0x20\n        /* \"#utility.yul\":2679:2682   */\n      dup3\n        /* \"#utility.yul\":2675:2687   */\n      add\n        /* \"#utility.yul\":2668:2687   */\n      swap1\n      pop\n        /* \"#utility.yul\":2328:2693   */\n      swap2\n      swap1\n      pop\n      jump\t// out\n        /* \"#utility.yul\":2699:3118   */\n    tag_31:\n        /* \"#utility.yul\":2865:2869   */\n      0x00\n        /* \"#utility.yul\":2903:2905   */\n      0x20\n        /* \"#utility.yul\":2892:2901   */\n      dup3\n        /* \"#utility.yul\":2888:2906   */\n      add\n        /* \"#utility.yul\":2880:2906   */\n      swap1\n      pop\n        /* \"#utility.yul\":2952:2961   */\n      dup2\n        /* \"#utility.yul\":2946:2950   */\n      dup2\n        /* \"#utility.yul\":2942:2962   */\n      sub\n        /* \"#utility.yul\":2938:2939   */\n      0x00\n        /* \"#utility.yul\":2927:2936   */\n      dup4\n        /* \"#utility.yul\":2923:2940   */\n      add\n        /* \"#utility.yul\":2916:2963   */\n      mstore\n        /* \"#utility.yul\":2980:3111   */\n      tag_73\n        /* \"#utility.yul\":3106:3110   */\n      dup2\n        /* \"#utility.yul\":2980:3111   */\n      tag_42\n      jump\t// in\n    tag_73:\n        /* \"#utility.yul\":2972:3111   */\n      swap1\n      pop\n        /* \"#utility.yul\":2699:3118   */\n      swap2\n      swap1\n      pop\n      jump\t// out\n\n    auxdata: 0xa26469706673582212207d61126b70c72483ee811c5c385d43028c26d8285156875fcfc25902fbec28fe64736f6c63430008110033\n}\n",
				"bytecode": {
					"linkReferences": {},
					"object": "60806040526040518060600160405280600360ff168152602001600260ff168152602001600160ff16815250600090600361003b92919061004e565b5034801561004857600080fd5b506100bd565b82805482825590600052602060002090810192821561008f579160200282015b8281111561008e578251829060ff1690559160200191906001019061006e565b5b50905061009c91906100a0565b5090565b5b808211156100b95760008160009055506001016100a1565b5090565b61034a806100cc6000396000f3fe608060405234801561001057600080fd5b50600436106100365760003560e01c806371e5ee5f1461003b578063a973e27c1461006b575b600080fd5b6100556004803603810190610050919061019a565b610089565b60405161006291906101d6565b60405180910390f35b6100736100ad565b60405161008091906101d6565b60405180910390f35b6000818154811061009957600080fd5b906000526020600020016000915090505481565b60006100c4600360006100c990919063ffffffff16565b905090565b600080600090505b838054905081101561011d57828482815481106100f1576100f06101f1565b5b90600052602060002001540361010a5780915050610159565b80806101159061024f565b9150506100d1565b506040517f08c379a0000000000000000000000000000000000000000000000000000000008152600401610150906102f4565b60405180910390fd5b92915050565b600080fd5b6000819050919050565b61017781610164565b811461018257600080fd5b50565b6000813590506101948161016e565b92915050565b6000602082840312156101b0576101af61015f565b5b60006101be84828501610185565b91505092915050565b6101d081610164565b82525050565b60006020820190506101eb60008301846101c7565b92915050565b7f4e487b7100000000000000000000000000000000000000000000000000000000600052603260045260246000fd5b7f4e487b7100000000000000000000000000000000000000000000000000000000600052601160045260246000fd5b600061025a82610164565b91507fffffffffffffffffffffffffffffffffffffffffffffffffffffffffffffffff820361028c5761028b610220565b5b600182019050919050565b600082825260208201905092915050565b7f6e6f7420666f756e640000000000000000000000000000000000000000000000600082015250565b60006102de600983610297565b91506102e9826102a8565b602082019050919050565b6000602082019050818103600083015261030d816102d1565b905091905056fea26469706673582212207d61126b70c72483ee811c5c385d43028c26d8285156875fcfc25902fbec28fe64736f6c63430008110033",
					"opcodes": "PUSH1 0x80 PUSH1 0x40 MSTORE PUSH1 0x40 MLOAD DUP1 PUSH1 0x60 ADD PUSH1 0x40 MSTORE DUP1 PUSH1 0x3 PUSH1 0xFF AND DUP2 MSTORE PUSH1 0x20 ADD PUSH1 0x2 PUSH1 0xFF AND DUP2 MSTORE PUSH1 0x20 ADD PUSH1 0x1 PUSH1 0xFF AND DUP2 MSTORE POP PUSH1 0x0 SWAP1 PUSH1 0x3 PUSH2 0x3B SWAP3 SWAP2 SWAP1 PUSH2 0x4E JUMP JUMPDEST POP CALLVALUE DUP1 ISZERO PUSH2 0x48 JUMPI PUSH1 0x0 DUP1 REVERT JUMPDEST POP PUSH2 0xBD JUMP JUMPDEST DUP3 DUP1 SLOAD DUP3 DUP3 SSTORE SWAP1 PUSH1 0x0 MSTORE PUSH1 0x20 PUSH1 0x0 KECCAK256 SWAP1 DUP2 ADD SWAP3 DUP3 ISZERO PUSH2 0x8F JUMPI SWAP2 PUSH1 0x20 MUL DUP3 ADD JUMPDEST DUP3 DUP2 GT ISZERO PUSH2 0x8E JUMPI DUP3 MLOAD DUP3 SWAP1 PUSH1 0xFF AND SWAP1 SSTORE SWAP2 PUSH1 0x20 ADD SWAP2 SWAP1 PUSH1 0x1 ADD SWAP1 PUSH2 0x6E JUMP JUMPDEST JUMPDEST POP SWAP1 POP PUSH2 0x9C SWAP2 SWAP1 PUSH2 0xA0 JUMP JUMPDEST POP SWAP1 JUMP JUMPDEST JUMPDEST DUP1 DUP3 GT ISZERO PUSH2 0xB9 JUMPI PUSH1 0x0 DUP2 PUSH1 0x0 SWAP1 SSTORE POP PUSH1 0x1 ADD PUSH2 0xA1 JUMP JUMPDEST POP SWAP1 JUMP JUMPDEST PUSH2 0x34A DUP1 PUSH2 0xCC PUSH1 0x0 CODECOPY PUSH1 0x0 RETURN INVALID PUSH1 0x80 PUSH1 0x40 MSTORE CALLVALUE DUP1 ISZERO PUSH2 0x10 JUMPI PUSH1 0x0 DUP1 REVERT JUMPDEST POP PUSH1 0x4 CALLDATASIZE LT PUSH2 0x36 JUMPI PUSH1 0x0 CALLDATALOAD PUSH1 0xE0 SHR DUP1 PUSH4 0x71E5EE5F EQ PUSH2 0x3B JUMPI DUP1 PUSH4 0xA973E27C EQ PUSH2 0x6B JUMPI JUMPDEST PUSH1 0x0 DUP1 REVERT JUMPDEST PUSH2 0x55 PUSH1 0x4 DUP1 CALLDATASIZE SUB DUP2 ADD SWAP1 PUSH2 0x50 SWAP2 SWAP1 PUSH2 0x19A JUMP JUMPDEST PUSH2 0x89 JUMP JUMPDEST PUSH1 0x40 MLOAD PUSH2 0x62 SWAP2 SWAP1 PUSH2 0x1D6 JUMP JUMPDEST PUSH1 0x40 MLOAD DUP1 SWAP2 SUB SWAP1 RETURN JUMPDEST PUSH2 0x73 PUSH2 0xAD JUMP JUMPDEST PUSH1 0x40 MLOAD PUSH2 0x80 SWAP2 SWAP1 PUSH2 0x1D6 JUMP JUMPDEST PUSH1 0x40 MLOAD DUP1 SWAP2 SUB SWAP1 RETURN JUMPDEST PUSH1 0x0 DUP2 DUP2 SLOAD DUP2 LT PUSH2 0x99 JUMPI PUSH1 0x0 DUP1 REVERT JUMPDEST SWAP1 PUSH1 0x0 MSTORE PUSH1 0x20 PUSH1 0x0 KECCAK256 ADD PUSH1 0x0 SWAP2 POP SWAP1 POP SLOAD DUP2 JUMP JUMPDEST PUSH1 0x0 PUSH2 0xC4 PUSH1 0x3 PUSH1 0x0 PUSH2 0xC9 SWAP1 SWAP2 SWAP1 PUSH4 0xFFFFFFFF AND JUMP JUMPDEST SWAP1 POP SWAP1 JUMP JUMPDEST PUSH1 0x0 DUP1 PUSH1 0x0 SWAP1 POP JUMPDEST DUP4 DUP1 SLOAD SWAP1 POP DUP2 LT ISZERO PUSH2 0x11D JUMPI DUP3 DUP5 DUP3 DUP2 SLOAD DUP2 LT PUSH2 0xF1 JUMPI PUSH2 0xF0 PUSH2 0x1F1 JUMP JUMPDEST JUMPDEST SWAP1 PUSH1 0x0 MSTORE PUSH1 0x20 PUSH1 0x0 KECCAK256 ADD SLOAD SUB PUSH2 0x10A JUMPI DUP1 SWAP2 POP POP PUSH2 0x159 JUMP JUMPDEST DUP1 DUP1 PUSH2 0x115 SWAP1 PUSH2 0x24F JUMP JUMPDEST SWAP2 POP POP PUSH2 0xD1 JUMP JUMPDEST POP PUSH1 0x40 MLOAD PUSH32 0x8C379A000000000000000000000000000000000000000000000000000000000 DUP2 MSTORE PUSH1 0x4 ADD PUSH2 0x150 SWAP1 PUSH2 0x2F4 JUMP JUMPDEST PUSH1 0x40 MLOAD DUP1 SWAP2 SUB SWAP1 REVERT JUMPDEST SWAP3 SWAP2 POP POP JUMP JUMPDEST PUSH1 0x0 DUP1 REVERT JUMPDEST PUSH1 0x0 DUP2 SWAP1 POP SWAP2 SWAP1 POP JUMP JUMPDEST PUSH2 0x177 DUP2 PUSH2 0x164 JUMP JUMPDEST DUP2 EQ PUSH2 0x182 JUMPI PUSH1 0x0 DUP1 REVERT JUMPDEST POP JUMP JUMPDEST PUSH1 0x0 DUP2 CALLDATALOAD SWAP1 POP PUSH2 0x194 DUP2 PUSH2 0x16E JUMP JUMPDEST SWAP3 SWAP2 POP POP JUMP JUMPDEST PUSH1 0x0 PUSH1 0x20 DUP3 DUP5 SUB SLT ISZERO PUSH2 0x1B0 JUMPI PUSH2 0x1AF PUSH2 0x15F JUMP JUMPDEST JUMPDEST PUSH1 0x0 PUSH2 0x1BE DUP5 DUP3 DUP6 ADD PUSH2 0x185 JUMP JUMPDEST SWAP2 POP POP SWAP3 SWAP2 POP POP JUMP JUMPDEST PUSH2 0x1D0 DUP2 PUSH2 0x164 JUMP JUMPDEST DUP3 MSTORE POP POP JUMP JUMPDEST PUSH1 0x0 PUSH1 0x20 DUP3 ADD SWAP1 POP PUSH2 0x1EB PUSH1 0x0 DUP4 ADD DUP5 PUSH2 0x1C7 JUMP JUMPDEST SWAP3 SWAP2 POP POP JUMP JUMPDEST PUSH32 0x4E487B7100000000000000000000000000000000000000000000000000000000 PUSH1 0x0 MSTORE PUSH1 0x32 PUSH1 0x4 MSTORE PUSH1 0x24 PUSH1 0x0 REVERT JUMPDEST PUSH32 0x4E487B7100000000000000000000000000000000000000000000000000000000 PUSH1 0x0 MSTORE PUSH1 0x11 PUSH1 0x4 MSTORE PUSH1 0x24 PUSH1 0x0 REVERT JUMPDEST PUSH1 0x0 PUSH2 0x25A DUP3 PUSH2 0x164 JUMP JUMPDEST SWAP2 POP PUSH32 0xFFFFFFFFFFFFFFFFFFFFFFFFFFFFFFFFFFFFFFFFFFFFFFFFFFFFFFFFFFFFFFFF DUP3 SUB PUSH2 0x28C JUMPI PUSH2 0x28B PUSH2 0x220 JUMP JUMPDEST JUMPDEST PUSH1 0x1 DUP3 ADD SWAP1 POP SWAP2 SWAP1 POP JUMP JUMPDEST PUSH1 0x0 DUP3 DUP3 MSTORE PUSH1 0x20 DUP3 ADD SWAP1 POP SWAP3 SWAP2 POP POP JUMP JUMPDEST PUSH32 0x6E6F7420666F756E640000000000000000000000000000000000000000000000 PUSH1 0x0 DUP3 ADD MSTORE POP JUMP JUMPDEST PUSH1 0x0 PUSH2 0x2DE PUSH1 0x9 DUP4 PUSH2 0x297 JUMP JUMPDEST SWAP2 POP PUSH2 0x2E9 DUP3 PUSH2 0x2A8 JUMP JUMPDEST PUSH1 0x20 DUP3 ADD SWAP1 POP SWAP2 SWAP1 POP JUMP JUMPDEST PUSH1 0x0 PUSH1 0x20 DUP3 ADD SWAP1 POP DUP2 DUP2 SUB PUSH1 0x0 DUP4 ADD MSTORE PUSH2 0x30D DUP2 PUSH2 0x2D1 JUMP JUMPDEST SWAP1 POP SWAP2 SWAP1 POP JUMP INVALID LOG2 PUSH5 0x6970667358 0x22 SLT KECCAK256 PUSH30 0x61126B70C72483EE811C5C385D43028C26D8285156875FCFC25902FBEC28 INVALID PUSH5 0x736F6C6343 STOP ADDMOD GT STOP CALLER "
				},
				"gasEstimates": {
					"creation": {
						"codeDepositCost": "168400",
						"executionCost": "infinite",
						"totalCost": "infinite"
					},
					"external": {
						"arr(uint256)": "infinite",
						"testFind()": "infinite"
					}
				},
				"methodIdentifiers": {
					"arr(uint256)": "71e5ee5f",
					"testFind()": "a973e27c"
				}
			},
			"storageLayout": {
				"storage": [
					{
						"astId": 85,
						"contract": "Patika-Solidity/library.sol:TestArray",
						"label": "arr",
						"offset": 0,
						"slot": "0",
						"type": "t_array(t_uint256)dyn_storage"
					}
				],
				"types": {
					"t_array(t_uint256)dyn_storage": {
						"base": "t_uint256",
						"encoding": "dynamic_array",
						"label": "uint256[]",
						"numberOfBytes": "32"
					},
					"t_uint256": {
						"encoding": "inplace",
						"label": "uint256",
						"numberOfBytes": "32"
					}
				}
			},
			"userdoc": {
				"kind": "user",
				"methods": {},
				"version": 1
			}
		}
	}
}