{
	"Patika-Solidity/mappings.sol": {
		"Mapping": {
			"abi": [
				{
					"inputs": [],
					"name": "deleteRegistered",
					"outputs": [],
					"stateMutability": "nonpayable",
					"type": "function"
				},
				{
					"inputs": [
						{
							"internalType": "address",
							"name": "",
							"type": "address"
						}
					],
					"name": "favNums",
					"outputs": [
						{
							"internalType": "int256",
							"name": "",
							"type": "int256"
						}
					],
					"stateMutability": "view",
					"type": "function"
				},
				{
					"inputs": [],
					"name": "isRegistered",
					"outputs": [
						{
							"internalType": "bool",
							"name": "",
							"type": "bool"
						}
					],
					"stateMutability": "view",
					"type": "function"
				},
				{
					"inputs": [
						{
							"internalType": "int256",
							"name": "_favNum",
							"type": "int256"
						}
					],
					"name": "register",
					"outputs": [],
					"stateMutability": "nonpayable",
					"type": "function"
				},
				{
					"inputs": [
						{
							"internalType": "address",
							"name": "",
							"type": "address"
						}
					],
					"name": "registered",
					"outputs": [
						{
							"internalType": "bool",
							"name": "",
							"type": "bool"
						}
					],
					"stateMutability": "view",
					"type": "function"
				}
			],
			"devdoc": {
				"kind": "dev",
				"methods": {},
				"version": 1
			},
			"evm": {
				"assembly": "    /* \"Patika-Solidity/mappings.sol\":59:782  contract Mapping {... */\n  mstore(0x40, 0x80)\n  callvalue\n  dup1\n  iszero\n  tag_1\n  jumpi\n  0x00\n  dup1\n  revert\ntag_1:\n  pop\n  dataSize(sub_0)\n  dup1\n  dataOffset(sub_0)\n  0x00\n  codecopy\n  0x00\n  return\nstop\n\nsub_0: assembly {\n        /* \"Patika-Solidity/mappings.sol\":59:782  contract Mapping {... */\n      mstore(0x40, 0x80)\n      callvalue\n      dup1\n      iszero\n      tag_1\n      jumpi\n      0x00\n      dup1\n      revert\n    tag_1:\n      pop\n      jumpi(tag_2, lt(calldatasize, 0x04))\n      shr(0xe0, calldataload(0x00))\n      dup1\n      0x22366844\n      eq\n      tag_3\n      jumpi\n      dup1\n      0xa31a9dc3\n      eq\n      tag_4\n      jumpi\n      dup1\n      0xb2dd5c07\n      eq\n      tag_5\n      jumpi\n      dup1\n      0xcce0b6a1\n      eq\n      tag_6\n      jumpi\n      dup1\n      0xe6059f96\n      eq\n      tag_7\n      jumpi\n    tag_2:\n      0x00\n      dup1\n      revert\n        /* \"Patika-Solidity/mappings.sol\":483:582  function isRegistered() public view returns (bool) {... */\n    tag_3:\n      tag_8\n      tag_9\n      jump\t// in\n    tag_8:\n      mload(0x40)\n      tag_10\n      swap2\n      swap1\n      tag_11\n      jump\t// in\n    tag_10:\n      mload(0x40)\n      dup1\n      swap2\n      sub\n      swap1\n      return\n        /* \"Patika-Solidity/mappings.sol\":590:779  function deleteRegistered() public {... */\n    tag_4:\n      tag_12\n      tag_13\n      jump\t// in\n    tag_12:\n      stop\n        /* \"Patika-Solidity/mappings.sol\":83:125  mapping(address => bool) public registered */\n    tag_5:\n      tag_14\n      0x04\n      dup1\n      calldatasize\n      sub\n      dup2\n      add\n      swap1\n      tag_15\n      swap2\n      swap1\n      tag_16\n      jump\t// in\n    tag_15:\n      tag_17\n      jump\t// in\n    tag_14:\n      mload(0x40)\n      tag_18\n      swap2\n      swap1\n      tag_11\n      jump\t// in\n    tag_18:\n      mload(0x40)\n      dup1\n      swap2\n      sub\n      swap1\n      return\n        /* \"Patika-Solidity/mappings.sol\":132:173  mapping(address => int256) public favNums */\n    tag_6:\n      tag_19\n      0x04\n      dup1\n      calldatasize\n      sub\n      dup2\n      add\n      swap1\n      tag_20\n      swap2\n      swap1\n      tag_16\n      jump\t// in\n    tag_20:\n      tag_21\n      jump\t// in\n    tag_19:\n      mload(0x40)\n      tag_22\n      swap2\n      swap1\n      tag_23\n      jump\t// in\n    tag_22:\n      mload(0x40)\n      dup1\n      swap2\n      sub\n      swap1\n      return\n        /* \"Patika-Solidity/mappings.sol\":182:475  function register(int256 _favNum) public {... */\n    tag_7:\n      tag_24\n      0x04\n      dup1\n      calldatasize\n      sub\n      dup2\n      add\n      swap1\n      tag_25\n      swap2\n      swap1\n      tag_26\n      jump\t// in\n    tag_25:\n      tag_27\n      jump\t// in\n    tag_24:\n      stop\n        /* \"Patika-Solidity/mappings.sol\":483:582  function isRegistered() public view returns (bool) {... */\n    tag_9:\n        /* \"Patika-Solidity/mappings.sol\":528:532  bool */\n      0x00\n        /* \"Patika-Solidity/mappings.sol\":552:562  registered */\n      dup1\n        /* \"Patika-Solidity/mappings.sol\":552:574  registered[msg.sender] */\n      0x00\n        /* \"Patika-Solidity/mappings.sol\":563:573  msg.sender */\n      caller\n        /* \"Patika-Solidity/mappings.sol\":552:574  registered[msg.sender] */\n      0xffffffffffffffffffffffffffffffffffffffff\n      and\n      0xffffffffffffffffffffffffffffffffffffffff\n      and\n      dup2\n      mstore\n      0x20\n      add\n      swap1\n      dup2\n      mstore\n      0x20\n      add\n      0x00\n      keccak256\n      0x00\n      swap1\n      sload\n      swap1\n      0x0100\n      exp\n      swap1\n      div\n      0xff\n      and\n        /* \"Patika-Solidity/mappings.sol\":545:574  return registered[msg.sender] */\n      swap1\n      pop\n        /* \"Patika-Solidity/mappings.sol\":483:582  function isRegistered() public view returns (bool) {... */\n      swap1\n      jump\t// out\n        /* \"Patika-Solidity/mappings.sol\":590:779  function deleteRegistered() public {... */\n    tag_13:\n        /* \"Patika-Solidity/mappings.sol\":644:658  isRegistered() */\n      tag_30\n        /* \"Patika-Solidity/mappings.sol\":644:656  isRegistered */\n      tag_9\n        /* \"Patika-Solidity/mappings.sol\":644:658  isRegistered() */\n      jump\t// in\n    tag_30:\n        /* \"Patika-Solidity/mappings.sol\":636:690  require(isRegistered(), \"Kullaniciniz kayitli degil.\") */\n      tag_31\n      jumpi\n      mload(0x40)\n      0x08c379a000000000000000000000000000000000000000000000000000000000\n      dup2\n      mstore\n      0x04\n      add\n      tag_32\n      swap1\n      tag_33\n      jump\t// in\n    tag_32:\n      mload(0x40)\n      dup1\n      swap2\n      sub\n      swap1\n      revert\n    tag_31:\n        /* \"Patika-Solidity/mappings.sol\":709:719  registered */\n      0x00\n        /* \"Patika-Solidity/mappings.sol\":709:731  registered[msg.sender] */\n      dup1\n        /* \"Patika-Solidity/mappings.sol\":720:730  msg.sender */\n      caller\n        /* \"Patika-Solidity/mappings.sol\":709:731  registered[msg.sender] */\n      0xffffffffffffffffffffffffffffffffffffffff\n      and\n      0xffffffffffffffffffffffffffffffffffffffff\n      and\n      dup2\n      mstore\n      0x20\n      add\n      swap1\n      dup2\n      mstore\n      0x20\n      add\n      0x00\n      keccak256\n      0x00\n        /* \"Patika-Solidity/mappings.sol\":701:732  delete (registered[msg.sender]) */\n      0x0100\n      exp\n      dup2\n      sload\n      swap1\n      0xff\n      mul\n      not\n      and\n      swap1\n      sstore\n        /* \"Patika-Solidity/mappings.sol\":751:758  favNums */\n      0x01\n        /* \"Patika-Solidity/mappings.sol\":751:770  favNums[msg.sender] */\n      0x00\n        /* \"Patika-Solidity/mappings.sol\":759:769  msg.sender */\n      caller\n        /* \"Patika-Solidity/mappings.sol\":751:770  favNums[msg.sender] */\n      0xffffffffffffffffffffffffffffffffffffffff\n      and\n      0xffffffffffffffffffffffffffffffffffffffff\n      and\n      dup2\n      mstore\n      0x20\n      add\n      swap1\n      dup2\n      mstore\n      0x20\n      add\n      0x00\n      keccak256\n        /* \"Patika-Solidity/mappings.sol\":743:771  delete (favNums[msg.sender]) */\n      0x00\n      swap1\n      sstore\n        /* \"Patika-Solidity/mappings.sol\":590:779  function deleteRegistered() public {... */\n      jump\t// out\n        /* \"Patika-Solidity/mappings.sol\":83:125  mapping(address => bool) public registered */\n    tag_17:\n      mstore(0x20, 0x00)\n      dup1\n      0x00\n      mstore\n      keccak256(0x00, 0x40)\n      0x00\n      swap2\n      pop\n      sload\n      swap1\n      0x0100\n      exp\n      swap1\n      div\n      0xff\n      and\n      dup2\n      jump\t// out\n        /* \"Patika-Solidity/mappings.sol\":132:173  mapping(address => int256) public favNums */\n    tag_21:\n      mstore(0x20, 0x01)\n      dup1\n      0x00\n      mstore\n      keccak256(0x00, 0x40)\n      0x00\n      swap2\n      pop\n      swap1\n      pop\n      sload\n      dup2\n      jump\t// out\n        /* \"Patika-Solidity/mappings.sol\":182:475  function register(int256 _favNum) public {... */\n    tag_27:\n        /* \"Patika-Solidity/mappings.sol\":333:347  isRegistered() */\n      tag_35\n        /* \"Patika-Solidity/mappings.sol\":333:345  isRegistered */\n      tag_9\n        /* \"Patika-Solidity/mappings.sol\":333:347  isRegistered() */\n      jump\t// in\n    tag_35:\n        /* \"Patika-Solidity/mappings.sol\":332:347  !isRegistered() */\n      iszero\n        /* \"Patika-Solidity/mappings.sol\":324:387  require(!isRegistered(), \"Kullaniciniz daha once kayit yapti.\") */\n      tag_36\n      jumpi\n      mload(0x40)\n      0x08c379a000000000000000000000000000000000000000000000000000000000\n      dup2\n      mstore\n      0x04\n      add\n      tag_37\n      swap1\n      tag_38\n      jump\t// in\n    tag_37:\n      mload(0x40)\n      dup1\n      swap2\n      sub\n      swap1\n      revert\n    tag_36:\n        /* \"Patika-Solidity/mappings.sol\":423:427  true */\n      0x01\n        /* \"Patika-Solidity/mappings.sol\":398:408  registered */\n      0x00\n        /* \"Patika-Solidity/mappings.sol\":398:420  registered[msg.sender] */\n      dup1\n        /* \"Patika-Solidity/mappings.sol\":409:419  msg.sender */\n      caller\n        /* \"Patika-Solidity/mappings.sol\":398:420  registered[msg.sender] */\n      0xffffffffffffffffffffffffffffffffffffffff\n      and\n      0xffffffffffffffffffffffffffffffffffffffff\n      and\n      dup2\n      mstore\n      0x20\n      add\n      swap1\n      dup2\n      mstore\n      0x20\n      add\n      0x00\n      keccak256\n      0x00\n        /* \"Patika-Solidity/mappings.sol\":398:427  registered[msg.sender] = true */\n      0x0100\n      exp\n      dup2\n      sload\n      dup2\n      0xff\n      mul\n      not\n      and\n      swap1\n      dup4\n      iszero\n      iszero\n      mul\n      or\n      swap1\n      sstore\n      pop\n        /* \"Patika-Solidity/mappings.sol\":460:467  _favNum */\n      dup1\n        /* \"Patika-Solidity/mappings.sol\":438:445  favNums */\n      0x01\n        /* \"Patika-Solidity/mappings.sol\":438:457  favNums[msg.sender] */\n      0x00\n        /* \"Patika-Solidity/mappings.sol\":446:456  msg.sender */\n      caller\n        /* \"Patika-Solidity/mappings.sol\":438:457  favNums[msg.sender] */\n      0xffffffffffffffffffffffffffffffffffffffff\n      and\n      0xffffffffffffffffffffffffffffffffffffffff\n      and\n      dup2\n      mstore\n      0x20\n      add\n      swap1\n      dup2\n      mstore\n      0x20\n      add\n      0x00\n      keccak256\n        /* \"Patika-Solidity/mappings.sol\":438:467  favNums[msg.sender] = _favNum */\n      dup2\n      swap1\n      sstore\n      pop\n        /* \"Patika-Solidity/mappings.sol\":182:475  function register(int256 _favNum) public {... */\n      pop\n      jump\t// out\n        /* \"#utility.yul\":7:97   */\n    tag_39:\n        /* \"#utility.yul\":41:48   */\n      0x00\n        /* \"#utility.yul\":84:89   */\n      dup2\n        /* \"#utility.yul\":77:90   */\n      iszero\n        /* \"#utility.yul\":70:91   */\n      iszero\n        /* \"#utility.yul\":59:91   */\n      swap1\n      pop\n        /* \"#utility.yul\":7:97   */\n      swap2\n      swap1\n      pop\n      jump\t// out\n        /* \"#utility.yul\":103:212   */\n    tag_40:\n        /* \"#utility.yul\":184:205   */\n      tag_60\n        /* \"#utility.yul\":199:204   */\n      dup2\n        /* \"#utility.yul\":184:205   */\n      tag_39\n      jump\t// in\n    tag_60:\n        /* \"#utility.yul\":179:182   */\n      dup3\n        /* \"#utility.yul\":172:206   */\n      mstore\n        /* \"#utility.yul\":103:212   */\n      pop\n      pop\n      jump\t// out\n        /* \"#utility.yul\":218:428   */\n    tag_11:\n        /* \"#utility.yul\":305:309   */\n      0x00\n        /* \"#utility.yul\":343:345   */\n      0x20\n        /* \"#utility.yul\":332:341   */\n      dup3\n        /* \"#utility.yul\":328:346   */\n      add\n        /* \"#utility.yul\":320:346   */\n      swap1\n      pop\n        /* \"#utility.yul\":356:421   */\n      tag_62\n        /* \"#utility.yul\":418:419   */\n      0x00\n        /* \"#utility.yul\":407:416   */\n      dup4\n        /* \"#utility.yul\":403:420   */\n      add\n        /* \"#utility.yul\":394:400   */\n      dup5\n        /* \"#utility.yul\":356:421   */\n      tag_40\n      jump\t// in\n    tag_62:\n        /* \"#utility.yul\":218:428   */\n      swap3\n      swap2\n      pop\n      pop\n      jump\t// out\n        /* \"#utility.yul\":515:632   */\n    tag_42:\n        /* \"#utility.yul\":624:625   */\n      0x00\n        /* \"#utility.yul\":621:622   */\n      dup1\n        /* \"#utility.yul\":614:626   */\n      revert\n        /* \"#utility.yul\":761:887   */\n    tag_44:\n        /* \"#utility.yul\":798:805   */\n      0x00\n        /* \"#utility.yul\":838:880   */\n      0xffffffffffffffffffffffffffffffffffffffff\n        /* \"#utility.yul\":831:836   */\n      dup3\n        /* \"#utility.yul\":827:881   */\n      and\n        /* \"#utility.yul\":816:881   */\n      swap1\n      pop\n        /* \"#utility.yul\":761:887   */\n      swap2\n      swap1\n      pop\n      jump\t// out\n        /* \"#utility.yul\":893:989   */\n    tag_45:\n        /* \"#utility.yul\":930:937   */\n      0x00\n        /* \"#utility.yul\":959:983   */\n      tag_68\n        /* \"#utility.yul\":977:982   */\n      dup3\n        /* \"#utility.yul\":959:983   */\n      tag_44\n      jump\t// in\n    tag_68:\n        /* \"#utility.yul\":948:983   */\n      swap1\n      pop\n        /* \"#utility.yul\":893:989   */\n      swap2\n      swap1\n      pop\n      jump\t// out\n        /* \"#utility.yul\":995:1117   */\n    tag_46:\n        /* \"#utility.yul\":1068:1092   */\n      tag_70\n        /* \"#utility.yul\":1086:1091   */\n      dup2\n        /* \"#utility.yul\":1068:1092   */\n      tag_45\n      jump\t// in\n    tag_70:\n        /* \"#utility.yul\":1061:1066   */\n      dup2\n        /* \"#utility.yul\":1058:1093   */\n      eq\n        /* \"#utility.yul\":1048:1111   */\n      tag_71\n      jumpi\n        /* \"#utility.yul\":1107:1108   */\n      0x00\n        /* \"#utility.yul\":1104:1105   */\n      dup1\n        /* \"#utility.yul\":1097:1109   */\n      revert\n        /* \"#utility.yul\":1048:1111   */\n    tag_71:\n        /* \"#utility.yul\":995:1117   */\n      pop\n      jump\t// out\n        /* \"#utility.yul\":1123:1262   */\n    tag_47:\n        /* \"#utility.yul\":1169:1174   */\n      0x00\n        /* \"#utility.yul\":1207:1213   */\n      dup2\n        /* \"#utility.yul\":1194:1214   */\n      calldataload\n        /* \"#utility.yul\":1185:1214   */\n      swap1\n      pop\n        /* \"#utility.yul\":1223:1256   */\n      tag_73\n        /* \"#utility.yul\":1250:1255   */\n      dup2\n        /* \"#utility.yul\":1223:1256   */\n      tag_46\n      jump\t// in\n    tag_73:\n        /* \"#utility.yul\":1123:1262   */\n      swap3\n      swap2\n      pop\n      pop\n      jump\t// out\n        /* \"#utility.yul\":1268:1597   */\n    tag_16:\n        /* \"#utility.yul\":1327:1333   */\n      0x00\n        /* \"#utility.yul\":1376:1378   */\n      0x20\n        /* \"#utility.yul\":1364:1373   */\n      dup3\n        /* \"#utility.yul\":1355:1362   */\n      dup5\n        /* \"#utility.yul\":1351:1374   */\n      sub\n        /* \"#utility.yul\":1347:1379   */\n      slt\n        /* \"#utility.yul\":1344:1463   */\n      iszero\n      tag_75\n      jumpi\n        /* \"#utility.yul\":1382:1461   */\n      tag_76\n      tag_42\n      jump\t// in\n    tag_76:\n        /* \"#utility.yul\":1344:1463   */\n    tag_75:\n        /* \"#utility.yul\":1502:1503   */\n      0x00\n        /* \"#utility.yul\":1527:1580   */\n      tag_77\n        /* \"#utility.yul\":1572:1579   */\n      dup5\n        /* \"#utility.yul\":1563:1569   */\n      dup3\n        /* \"#utility.yul\":1552:1561   */\n      dup6\n        /* \"#utility.yul\":1548:1570   */\n      add\n        /* \"#utility.yul\":1527:1580   */\n      tag_47\n      jump\t// in\n    tag_77:\n        /* \"#utility.yul\":1517:1580   */\n      swap2\n      pop\n        /* \"#utility.yul\":1473:1590   */\n      pop\n        /* \"#utility.yul\":1268:1597   */\n      swap3\n      swap2\n      pop\n      pop\n      jump\t// out\n        /* \"#utility.yul\":1603:1679   */\n    tag_48:\n        /* \"#utility.yul\":1639:1646   */\n      0x00\n        /* \"#utility.yul\":1668:1673   */\n      dup2\n        /* \"#utility.yul\":1657:1673   */\n      swap1\n      pop\n        /* \"#utility.yul\":1603:1679   */\n      swap2\n      swap1\n      pop\n      jump\t// out\n        /* \"#utility.yul\":1685:1800   */\n    tag_49:\n        /* \"#utility.yul\":1770:1793   */\n      tag_80\n        /* \"#utility.yul\":1787:1792   */\n      dup2\n        /* \"#utility.yul\":1770:1793   */\n      tag_48\n      jump\t// in\n    tag_80:\n        /* \"#utility.yul\":1765:1768   */\n      dup3\n        /* \"#utility.yul\":1758:1794   */\n      mstore\n        /* \"#utility.yul\":1685:1800   */\n      pop\n      pop\n      jump\t// out\n        /* \"#utility.yul\":1806:2024   */\n    tag_23:\n        /* \"#utility.yul\":1897:1901   */\n      0x00\n        /* \"#utility.yul\":1935:1937   */\n      0x20\n        /* \"#utility.yul\":1924:1933   */\n      dup3\n        /* \"#utility.yul\":1920:1938   */\n      add\n        /* \"#utility.yul\":1912:1938   */\n      swap1\n      pop\n        /* \"#utility.yul\":1948:2017   */\n      tag_82\n        /* \"#utility.yul\":2014:2015   */\n      0x00\n        /* \"#utility.yul\":2003:2012   */\n      dup4\n        /* \"#utility.yul\":1999:2016   */\n      add\n        /* \"#utility.yul\":1990:1996   */\n      dup5\n        /* \"#utility.yul\":1948:2017   */\n      tag_49\n      jump\t// in\n    tag_82:\n        /* \"#utility.yul\":1806:2024   */\n      swap3\n      swap2\n      pop\n      pop\n      jump\t// out\n        /* \"#utility.yul\":2030:2150   */\n    tag_50:\n        /* \"#utility.yul\":2102:2125   */\n      tag_84\n        /* \"#utility.yul\":2119:2124   */\n      dup2\n        /* \"#utility.yul\":2102:2125   */\n      tag_48\n      jump\t// in\n    tag_84:\n        /* \"#utility.yul\":2095:2100   */\n      dup2\n        /* \"#utility.yul\":2092:2126   */\n      eq\n        /* \"#utility.yul\":2082:2144   */\n      tag_85\n      jumpi\n        /* \"#utility.yul\":2140:2141   */\n      0x00\n        /* \"#utility.yul\":2137:2138   */\n      dup1\n        /* \"#utility.yul\":2130:2142   */\n      revert\n        /* \"#utility.yul\":2082:2144   */\n    tag_85:\n        /* \"#utility.yul\":2030:2150   */\n      pop\n      jump\t// out\n        /* \"#utility.yul\":2156:2293   */\n    tag_51:\n        /* \"#utility.yul\":2201:2206   */\n      0x00\n        /* \"#utility.yul\":2239:2245   */\n      dup2\n        /* \"#utility.yul\":2226:2246   */\n      calldataload\n        /* \"#utility.yul\":2217:2246   */\n      swap1\n      pop\n        /* \"#utility.yul\":2255:2287   */\n      tag_87\n        /* \"#utility.yul\":2281:2286   */\n      dup2\n        /* \"#utility.yul\":2255:2287   */\n      tag_50\n      jump\t// in\n    tag_87:\n        /* \"#utility.yul\":2156:2293   */\n      swap3\n      swap2\n      pop\n      pop\n      jump\t// out\n        /* \"#utility.yul\":2299:2626   */\n    tag_26:\n        /* \"#utility.yul\":2357:2363   */\n      0x00\n        /* \"#utility.yul\":2406:2408   */\n      0x20\n        /* \"#utility.yul\":2394:2403   */\n      dup3\n        /* \"#utility.yul\":2385:2392   */\n      dup5\n        /* \"#utility.yul\":2381:2404   */\n      sub\n        /* \"#utility.yul\":2377:2409   */\n      slt\n        /* \"#utility.yul\":2374:2493   */\n      iszero\n      tag_89\n      jumpi\n        /* \"#utility.yul\":2412:2491   */\n      tag_90\n      tag_42\n      jump\t// in\n    tag_90:\n        /* \"#utility.yul\":2374:2493   */\n    tag_89:\n        /* \"#utility.yul\":2532:2533   */\n      0x00\n        /* \"#utility.yul\":2557:2609   */\n      tag_91\n        /* \"#utility.yul\":2601:2608   */\n      dup5\n        /* \"#utility.yul\":2592:2598   */\n      dup3\n        /* \"#utility.yul\":2581:2590   */\n      dup6\n        /* \"#utility.yul\":2577:2599   */\n      add\n        /* \"#utility.yul\":2557:2609   */\n      tag_51\n      jump\t// in\n    tag_91:\n        /* \"#utility.yul\":2547:2609   */\n      swap2\n      pop\n        /* \"#utility.yul\":2503:2619   */\n      pop\n        /* \"#utility.yul\":2299:2626   */\n      swap3\n      swap2\n      pop\n      pop\n      jump\t// out\n        /* \"#utility.yul\":2632:2801   */\n    tag_52:\n        /* \"#utility.yul\":2716:2727   */\n      0x00\n        /* \"#utility.yul\":2750:2756   */\n      dup3\n        /* \"#utility.yul\":2745:2748   */\n      dup3\n        /* \"#utility.yul\":2738:2757   */\n      mstore\n        /* \"#utility.yul\":2790:2794   */\n      0x20\n        /* \"#utility.yul\":2785:2788   */\n      dup3\n        /* \"#utility.yul\":2781:2795   */\n      add\n        /* \"#utility.yul\":2766:2795   */\n      swap1\n      pop\n        /* \"#utility.yul\":2632:2801   */\n      swap3\n      swap2\n      pop\n      pop\n      jump\t// out\n        /* \"#utility.yul\":2807:2984   */\n    tag_53:\n        /* \"#utility.yul\":2947:2976   */\n      0x4b756c6c616e6963696e697a206b617969746c6920646567696c2e0000000000\n        /* \"#utility.yul\":2943:2944   */\n      0x00\n        /* \"#utility.yul\":2935:2941   */\n      dup3\n        /* \"#utility.yul\":2931:2945   */\n      add\n        /* \"#utility.yul\":2924:2977   */\n      mstore\n        /* \"#utility.yul\":2807:2984   */\n      pop\n      jump\t// out\n        /* \"#utility.yul\":2990:3356   */\n    tag_54:\n        /* \"#utility.yul\":3132:3135   */\n      0x00\n        /* \"#utility.yul\":3153:3220   */\n      tag_95\n        /* \"#utility.yul\":3217:3219   */\n      0x1b\n        /* \"#utility.yul\":3212:3215   */\n      dup4\n        /* \"#utility.yul\":3153:3220   */\n      tag_52\n      jump\t// in\n    tag_95:\n        /* \"#utility.yul\":3146:3220   */\n      swap2\n      pop\n        /* \"#utility.yul\":3229:3322   */\n      tag_96\n        /* \"#utility.yul\":3318:3321   */\n      dup3\n        /* \"#utility.yul\":3229:3322   */\n      tag_53\n      jump\t// in\n    tag_96:\n        /* \"#utility.yul\":3347:3349   */\n      0x20\n        /* \"#utility.yul\":3342:3345   */\n      dup3\n        /* \"#utility.yul\":3338:3350   */\n      add\n        /* \"#utility.yul\":3331:3350   */\n      swap1\n      pop\n        /* \"#utility.yul\":2990:3356   */\n      swap2\n      swap1\n      pop\n      jump\t// out\n        /* \"#utility.yul\":3362:3781   */\n    tag_33:\n        /* \"#utility.yul\":3528:3532   */\n      0x00\n        /* \"#utility.yul\":3566:3568   */\n      0x20\n        /* \"#utility.yul\":3555:3564   */\n      dup3\n        /* \"#utility.yul\":3551:3569   */\n      add\n        /* \"#utility.yul\":3543:3569   */\n      swap1\n      pop\n        /* \"#utility.yul\":3615:3624   */\n      dup2\n        /* \"#utility.yul\":3609:3613   */\n      dup2\n        /* \"#utility.yul\":3605:3625   */\n      sub\n        /* \"#utility.yul\":3601:3602   */\n      0x00\n        /* \"#utility.yul\":3590:3599   */\n      dup4\n        /* \"#utility.yul\":3586:3603   */\n      add\n        /* \"#utility.yul\":3579:3626   */\n      mstore\n        /* \"#utility.yul\":3643:3774   */\n      tag_98\n        /* \"#utility.yul\":3769:3773   */\n      dup2\n        /* \"#utility.yul\":3643:3774   */\n      tag_54\n      jump\t// in\n    tag_98:\n        /* \"#utility.yul\":3635:3774   */\n      swap1\n      pop\n        /* \"#utility.yul\":3362:3781   */\n      swap2\n      swap1\n      pop\n      jump\t// out\n        /* \"#utility.yul\":3787:4009   */\n    tag_55:\n        /* \"#utility.yul\":3927:3961   */\n      0x4b756c6c616e6963696e697a2064616861206f6e6365206b6179697420796170\n        /* \"#utility.yul\":3923:3924   */\n      0x00\n        /* \"#utility.yul\":3915:3921   */\n      dup3\n        /* \"#utility.yul\":3911:3925   */\n      add\n        /* \"#utility.yul\":3904:3962   */\n      mstore\n        /* \"#utility.yul\":3996:4001   */\n      0x74692e0000000000000000000000000000000000000000000000000000000000\n        /* \"#utility.yul\":3991:3993   */\n      0x20\n        /* \"#utility.yul\":3983:3989   */\n      dup3\n        /* \"#utility.yul\":3979:3994   */\n      add\n        /* \"#utility.yul\":3972:4002   */\n      mstore\n        /* \"#utility.yul\":3787:4009   */\n      pop\n      jump\t// out\n        /* \"#utility.yul\":4015:4381   */\n    tag_56:\n        /* \"#utility.yul\":4157:4160   */\n      0x00\n        /* \"#utility.yul\":4178:4245   */\n      tag_101\n        /* \"#utility.yul\":4242:4244   */\n      0x23\n        /* \"#utility.yul\":4237:4240   */\n      dup4\n        /* \"#utility.yul\":4178:4245   */\n      tag_52\n      jump\t// in\n    tag_101:\n        /* \"#utility.yul\":4171:4245   */\n      swap2\n      pop\n        /* \"#utility.yul\":4254:4347   */\n      tag_102\n        /* \"#utility.yul\":4343:4346   */\n      dup3\n        /* \"#utility.yul\":4254:4347   */\n      tag_55\n      jump\t// in\n    tag_102:\n        /* \"#utility.yul\":4372:4374   */\n      0x40\n        /* \"#utility.yul\":4367:4370   */\n      dup3\n        /* \"#utility.yul\":4363:4375   */\n      add\n        /* \"#utility.yul\":4356:4375   */\n      swap1\n      pop\n        /* \"#utility.yul\":4015:4381   */\n      swap2\n      swap1\n      pop\n      jump\t// out\n        /* \"#utility.yul\":4387:4806   */\n    tag_38:\n        /* \"#utility.yul\":4553:4557   */\n      0x00\n        /* \"#utility.yul\":4591:4593   */\n      0x20\n        /* \"#utility.yul\":4580:4589   */\n      dup3\n        /* \"#utility.yul\":4576:4594   */\n      add\n        /* \"#utility.yul\":4568:4594   */\n      swap1\n      pop\n        /* \"#utility.yul\":4640:4649   */\n      dup2\n        /* \"#utility.yul\":4634:4638   */\n      dup2\n        /* \"#utility.yul\":4630:4650   */\n      sub\n        /* \"#utility.yul\":4626:4627   */\n      0x00\n        /* \"#utility.yul\":4615:4624   */\n      dup4\n        /* \"#utility.yul\":4611:4628   */\n      add\n        /* \"#utility.yul\":4604:4651   */\n      mstore\n        /* \"#utility.yul\":4668:4799   */\n      tag_104\n        /* \"#utility.yul\":4794:4798   */\n      dup2\n        /* \"#utility.yul\":4668:4799   */\n      tag_56\n      jump\t// in\n    tag_104:\n        /* \"#utility.yul\":4660:4799   */\n      swap1\n      pop\n        /* \"#utility.yul\":4387:4806   */\n      swap2\n      swap1\n      pop\n      jump\t// out\n\n    auxdata: 0xa26469706673582212201a23f0bbf7bc2a10c0a4d5f9ec42a2c68f0da9d7f069ff8eb846c3e53ac5452664736f6c63430008110033\n}\n",
				"bytecode": {
					"linkReferences": {},
					"object": "608060405234801561001057600080fd5b506105e3806100206000396000f3fe608060405234801561001057600080fd5b50600436106100575760003560e01c8063223668441461005c578063a31a9dc31461007a578063b2dd5c0714610084578063cce0b6a1146100b4578063e6059f96146100e4575b600080fd5b610064610100565b6040516100719190610366565b60405180910390f35b610082610153565b005b61009e600480360381019061009991906103e4565b61022d565b6040516100ab9190610366565b60405180910390f35b6100ce60048036038101906100c991906103e4565b61024d565b6040516100db919061042a565b60405180910390f35b6100fe60048036038101906100f99190610471565b610265565b005b60008060003373ffffffffffffffffffffffffffffffffffffffff1673ffffffffffffffffffffffffffffffffffffffff16815260200190815260200160002060009054906101000a900460ff16905090565b61015b610100565b61019a576040517f08c379a0000000000000000000000000000000000000000000000000000000008152600401610191906104fb565b60405180910390fd5b6000803373ffffffffffffffffffffffffffffffffffffffff1673ffffffffffffffffffffffffffffffffffffffff16815260200190815260200160002060006101000a81549060ff0219169055600160003373ffffffffffffffffffffffffffffffffffffffff1673ffffffffffffffffffffffffffffffffffffffff16815260200190815260200160002060009055565b60006020528060005260406000206000915054906101000a900460ff1681565b60016020528060005260406000206000915090505481565b61026d610100565b156102ad576040517f08c379a00000000000000000000000000000000000000000000000000000000081526004016102a49061058d565b60405180910390fd5b60016000803373ffffffffffffffffffffffffffffffffffffffff1673ffffffffffffffffffffffffffffffffffffffff16815260200190815260200160002060006101000a81548160ff02191690831515021790555080600160003373ffffffffffffffffffffffffffffffffffffffff1673ffffffffffffffffffffffffffffffffffffffff1681526020019081526020016000208190555050565b60008115159050919050565b6103608161034b565b82525050565b600060208201905061037b6000830184610357565b92915050565b600080fd5b600073ffffffffffffffffffffffffffffffffffffffff82169050919050565b60006103b182610386565b9050919050565b6103c1816103a6565b81146103cc57600080fd5b50565b6000813590506103de816103b8565b92915050565b6000602082840312156103fa576103f9610381565b5b6000610408848285016103cf565b91505092915050565b6000819050919050565b61042481610411565b82525050565b600060208201905061043f600083018461041b565b92915050565b61044e81610411565b811461045957600080fd5b50565b60008135905061046b81610445565b92915050565b60006020828403121561048757610486610381565b5b60006104958482850161045c565b91505092915050565b600082825260208201905092915050565b7f4b756c6c616e6963696e697a206b617969746c6920646567696c2e0000000000600082015250565b60006104e5601b8361049e565b91506104f0826104af565b602082019050919050565b60006020820190508181036000830152610514816104d8565b9050919050565b7f4b756c6c616e6963696e697a2064616861206f6e6365206b617969742079617060008201527f74692e0000000000000000000000000000000000000000000000000000000000602082015250565b600061057760238361049e565b91506105828261051b565b604082019050919050565b600060208201905081810360008301526105a68161056a565b905091905056fea26469706673582212201a23f0bbf7bc2a10c0a4d5f9ec42a2c68f0da9d7f069ff8eb846c3e53ac5452664736f6c63430008110033",
					"opcodes": "PUSH1 0x80 PUSH1 0x40 MSTORE CALLVALUE DUP1 ISZERO PUSH2 0x10 JUMPI PUSH1 0x0 DUP1 REVERT JUMPDEST POP PUSH2 0x5E3 DUP1 PUSH2 0x20 PUSH1 0x0 CODECOPY PUSH1 0x0 RETURN INVALID PUSH1 0x80 PUSH1 0x40 MSTORE CALLVALUE DUP1 ISZERO PUSH2 0x10 JUMPI PUSH1 0x0 DUP1 REVERT JUMPDEST POP PUSH1 0x4 CALLDATASIZE LT PUSH2 0x57 JUMPI PUSH1 0x0 CALLDATALOAD PUSH1 0xE0 SHR DUP1 PUSH4 0x22366844 EQ PUSH2 0x5C JUMPI DUP1 PUSH4 0xA31A9DC3 EQ PUSH2 0x7A JUMPI DUP1 PUSH4 0xB2DD5C07 EQ PUSH2 0x84 JUMPI DUP1 PUSH4 0xCCE0B6A1 EQ PUSH2 0xB4 JUMPI DUP1 PUSH4 0xE6059F96 EQ PUSH2 0xE4 JUMPI JUMPDEST PUSH1 0x0 DUP1 REVERT JUMPDEST PUSH2 0x64 PUSH2 0x100 JUMP JUMPDEST PUSH1 0x40 MLOAD PUSH2 0x71 SWAP2 SWAP1 PUSH2 0x366 JUMP JUMPDEST PUSH1 0x40 MLOAD DUP1 SWAP2 SUB SWAP1 RETURN JUMPDEST PUSH2 0x82 PUSH2 0x153 JUMP JUMPDEST STOP JUMPDEST PUSH2 0x9E PUSH1 0x4 DUP1 CALLDATASIZE SUB DUP2 ADD SWAP1 PUSH2 0x99 SWAP2 SWAP1 PUSH2 0x3E4 JUMP JUMPDEST PUSH2 0x22D JUMP JUMPDEST PUSH1 0x40 MLOAD PUSH2 0xAB SWAP2 SWAP1 PUSH2 0x366 JUMP JUMPDEST PUSH1 0x40 MLOAD DUP1 SWAP2 SUB SWAP1 RETURN JUMPDEST PUSH2 0xCE PUSH1 0x4 DUP1 CALLDATASIZE SUB DUP2 ADD SWAP1 PUSH2 0xC9 SWAP2 SWAP1 PUSH2 0x3E4 JUMP JUMPDEST PUSH2 0x24D JUMP JUMPDEST PUSH1 0x40 MLOAD PUSH2 0xDB SWAP2 SWAP1 PUSH2 0x42A JUMP JUMPDEST PUSH1 0x40 MLOAD DUP1 SWAP2 SUB SWAP1 RETURN JUMPDEST PUSH2 0xFE PUSH1 0x4 DUP1 CALLDATASIZE SUB DUP2 ADD SWAP1 PUSH2 0xF9 SWAP2 SWAP1 PUSH2 0x471 JUMP JUMPDEST PUSH2 0x265 JUMP JUMPDEST STOP JUMPDEST PUSH1 0x0 DUP1 PUSH1 0x0 CALLER PUSH20 0xFFFFFFFFFFFFFFFFFFFFFFFFFFFFFFFFFFFFFFFF AND PUSH20 0xFFFFFFFFFFFFFFFFFFFFFFFFFFFFFFFFFFFFFFFF AND DUP2 MSTORE PUSH1 0x20 ADD SWAP1 DUP2 MSTORE PUSH1 0x20 ADD PUSH1 0x0 KECCAK256 PUSH1 0x0 SWAP1 SLOAD SWAP1 PUSH2 0x100 EXP SWAP1 DIV PUSH1 0xFF AND SWAP1 POP SWAP1 JUMP JUMPDEST PUSH2 0x15B PUSH2 0x100 JUMP JUMPDEST PUSH2 0x19A JUMPI PUSH1 0x40 MLOAD PUSH32 0x8C379A000000000000000000000000000000000000000000000000000000000 DUP2 MSTORE PUSH1 0x4 ADD PUSH2 0x191 SWAP1 PUSH2 0x4FB JUMP JUMPDEST PUSH1 0x40 MLOAD DUP1 SWAP2 SUB SWAP1 REVERT JUMPDEST PUSH1 0x0 DUP1 CALLER PUSH20 0xFFFFFFFFFFFFFFFFFFFFFFFFFFFFFFFFFFFFFFFF AND PUSH20 0xFFFFFFFFFFFFFFFFFFFFFFFFFFFFFFFFFFFFFFFF AND DUP2 MSTORE PUSH1 0x20 ADD SWAP1 DUP2 MSTORE PUSH1 0x20 ADD PUSH1 0x0 KECCAK256 PUSH1 0x0 PUSH2 0x100 EXP DUP2 SLOAD SWAP1 PUSH1 0xFF MUL NOT AND SWAP1 SSTORE PUSH1 0x1 PUSH1 0x0 CALLER PUSH20 0xFFFFFFFFFFFFFFFFFFFFFFFFFFFFFFFFFFFFFFFF AND PUSH20 0xFFFFFFFFFFFFFFFFFFFFFFFFFFFFFFFFFFFFFFFF AND DUP2 MSTORE PUSH1 0x20 ADD SWAP1 DUP2 MSTORE PUSH1 0x20 ADD PUSH1 0x0 KECCAK256 PUSH1 0x0 SWAP1 SSTORE JUMP JUMPDEST PUSH1 0x0 PUSH1 0x20 MSTORE DUP1 PUSH1 0x0 MSTORE PUSH1 0x40 PUSH1 0x0 KECCAK256 PUSH1 0x0 SWAP2 POP SLOAD SWAP1 PUSH2 0x100 EXP SWAP1 DIV PUSH1 0xFF AND DUP2 JUMP JUMPDEST PUSH1 0x1 PUSH1 0x20 MSTORE DUP1 PUSH1 0x0 MSTORE PUSH1 0x40 PUSH1 0x0 KECCAK256 PUSH1 0x0 SWAP2 POP SWAP1 POP SLOAD DUP2 JUMP JUMPDEST PUSH2 0x26D PUSH2 0x100 JUMP JUMPDEST ISZERO PUSH2 0x2AD JUMPI PUSH1 0x40 MLOAD PUSH32 0x8C379A000000000000000000000000000000000000000000000000000000000 DUP2 MSTORE PUSH1 0x4 ADD PUSH2 0x2A4 SWAP1 PUSH2 0x58D JUMP JUMPDEST PUSH1 0x40 MLOAD DUP1 SWAP2 SUB SWAP1 REVERT JUMPDEST PUSH1 0x1 PUSH1 0x0 DUP1 CALLER PUSH20 0xFFFFFFFFFFFFFFFFFFFFFFFFFFFFFFFFFFFFFFFF AND PUSH20 0xFFFFFFFFFFFFFFFFFFFFFFFFFFFFFFFFFFFFFFFF AND DUP2 MSTORE PUSH1 0x20 ADD SWAP1 DUP2 MSTORE PUSH1 0x20 ADD PUSH1 0x0 KECCAK256 PUSH1 0x0 PUSH2 0x100 EXP DUP2 SLOAD DUP2 PUSH1 0xFF MUL NOT AND SWAP1 DUP4 ISZERO ISZERO MUL OR SWAP1 SSTORE POP DUP1 PUSH1 0x1 PUSH1 0x0 CALLER PUSH20 0xFFFFFFFFFFFFFFFFFFFFFFFFFFFFFFFFFFFFFFFF AND PUSH20 0xFFFFFFFFFFFFFFFFFFFFFFFFFFFFFFFFFFFFFFFF AND DUP2 MSTORE PUSH1 0x20 ADD SWAP1 DUP2 MSTORE PUSH1 0x20 ADD PUSH1 0x0 KECCAK256 DUP2 SWAP1 SSTORE POP POP JUMP JUMPDEST PUSH1 0x0 DUP2 ISZERO ISZERO SWAP1 POP SWAP2 SWAP1 POP JUMP JUMPDEST PUSH2 0x360 DUP2 PUSH2 0x34B JUMP JUMPDEST DUP3 MSTORE POP POP JUMP JUMPDEST PUSH1 0x0 PUSH1 0x20 DUP3 ADD SWAP1 POP PUSH2 0x37B PUSH1 0x0 DUP4 ADD DUP5 PUSH2 0x357 JUMP JUMPDEST SWAP3 SWAP2 POP POP JUMP JUMPDEST PUSH1 0x0 DUP1 REVERT JUMPDEST PUSH1 0x0 PUSH20 0xFFFFFFFFFFFFFFFFFFFFFFFFFFFFFFFFFFFFFFFF DUP3 AND SWAP1 POP SWAP2 SWAP1 POP JUMP JUMPDEST PUSH1 0x0 PUSH2 0x3B1 DUP3 PUSH2 0x386 JUMP JUMPDEST SWAP1 POP SWAP2 SWAP1 POP JUMP JUMPDEST PUSH2 0x3C1 DUP2 PUSH2 0x3A6 JUMP JUMPDEST DUP2 EQ PUSH2 0x3CC JUMPI PUSH1 0x0 DUP1 REVERT JUMPDEST POP JUMP JUMPDEST PUSH1 0x0 DUP2 CALLDATALOAD SWAP1 POP PUSH2 0x3DE DUP2 PUSH2 0x3B8 JUMP JUMPDEST SWAP3 SWAP2 POP POP JUMP JUMPDEST PUSH1 0x0 PUSH1 0x20 DUP3 DUP5 SUB SLT ISZERO PUSH2 0x3FA JUMPI PUSH2 0x3F9 PUSH2 0x381 JUMP JUMPDEST JUMPDEST PUSH1 0x0 PUSH2 0x408 DUP5 DUP3 DUP6 ADD PUSH2 0x3CF JUMP JUMPDEST SWAP2 POP POP SWAP3 SWAP2 POP POP JUMP JUMPDEST PUSH1 0x0 DUP2 SWAP1 POP SWAP2 SWAP1 POP JUMP JUMPDEST PUSH2 0x424 DUP2 PUSH2 0x411 JUMP JUMPDEST DUP3 MSTORE POP POP JUMP JUMPDEST PUSH1 0x0 PUSH1 0x20 DUP3 ADD SWAP1 POP PUSH2 0x43F PUSH1 0x0 DUP4 ADD DUP5 PUSH2 0x41B JUMP JUMPDEST SWAP3 SWAP2 POP POP JUMP JUMPDEST PUSH2 0x44E DUP2 PUSH2 0x411 JUMP JUMPDEST DUP2 EQ PUSH2 0x459 JUMPI PUSH1 0x0 DUP1 REVERT JUMPDEST POP JUMP JUMPDEST PUSH1 0x0 DUP2 CALLDATALOAD SWAP1 POP PUSH2 0x46B DUP2 PUSH2 0x445 JUMP JUMPDEST SWAP3 SWAP2 POP POP JUMP JUMPDEST PUSH1 0x0 PUSH1 0x20 DUP3 DUP5 SUB SLT ISZERO PUSH2 0x487 JUMPI PUSH2 0x486 PUSH2 0x381 JUMP JUMPDEST JUMPDEST PUSH1 0x0 PUSH2 0x495 DUP5 DUP3 DUP6 ADD PUSH2 0x45C JUMP JUMPDEST SWAP2 POP POP SWAP3 SWAP2 POP POP JUMP JUMPDEST PUSH1 0x0 DUP3 DUP3 MSTORE PUSH1 0x20 DUP3 ADD SWAP1 POP SWAP3 SWAP2 POP POP JUMP JUMPDEST PUSH32 0x4B756C6C616E6963696E697A206B617969746C6920646567696C2E0000000000 PUSH1 0x0 DUP3 ADD MSTORE POP JUMP JUMPDEST PUSH1 0x0 PUSH2 0x4E5 PUSH1 0x1B DUP4 PUSH2 0x49E JUMP JUMPDEST SWAP2 POP PUSH2 0x4F0 DUP3 PUSH2 0x4AF JUMP JUMPDEST PUSH1 0x20 DUP3 ADD SWAP1 POP SWAP2 SWAP1 POP JUMP JUMPDEST PUSH1 0x0 PUSH1 0x20 DUP3 ADD SWAP1 POP DUP2 DUP2 SUB PUSH1 0x0 DUP4 ADD MSTORE PUSH2 0x514 DUP2 PUSH2 0x4D8 JUMP JUMPDEST SWAP1 POP SWAP2 SWAP1 POP JUMP JUMPDEST PUSH32 0x4B756C6C616E6963696E697A2064616861206F6E6365206B6179697420796170 PUSH1 0x0 DUP3 ADD MSTORE PUSH32 0x74692E0000000000000000000000000000000000000000000000000000000000 PUSH1 0x20 DUP3 ADD MSTORE POP JUMP JUMPDEST PUSH1 0x0 PUSH2 0x577 PUSH1 0x23 DUP4 PUSH2 0x49E JUMP JUMPDEST SWAP2 POP PUSH2 0x582 DUP3 PUSH2 0x51B JUMP JUMPDEST PUSH1 0x40 DUP3 ADD SWAP1 POP SWAP2 SWAP1 POP JUMP JUMPDEST PUSH1 0x0 PUSH1 0x20 DUP3 ADD SWAP1 POP DUP2 DUP2 SUB PUSH1 0x0 DUP4 ADD MSTORE PUSH2 0x5A6 DUP2 PUSH2 0x56A JUMP JUMPDEST SWAP1 POP SWAP2 SWAP1 POP JUMP INVALID LOG2 PUSH5 0x6970667358 0x22 SLT KECCAK256 BYTE 0x23 CREATE 0xBB 0xF7 0xBC 0x2A LT 0xC0 LOG4 0xD5 0xF9 0xEC TIMESTAMP LOG2 0xC6 DUP16 0xD 0xA9 0xD7 CREATE PUSH10 0xFF8EB846C3E53AC54526 PUSH5 0x736F6C6343 STOP ADDMOD GT STOP CALLER "
				},
				"gasEstimates": {
					"creation": {
						"codeDepositCost": "301400",
						"executionCost": "343",
						"totalCost": "301743"
					},
					"external": {
						"deleteRegistered()": "31850",
						"favNums(address)": "2858",
						"isRegistered()": "2546",
						"register(int256)": "49311",
						"registered(address)": "2867"
					}
				},
				"methodIdentifiers": {
					"deleteRegistered()": "a31a9dc3",
					"favNums(address)": "cce0b6a1",
					"isRegistered()": "22366844",
					"register(int256)": "e6059f96",
					"registered(address)": "b2dd5c07"
				}
			},
			"storageLayout": {
				"storage": [
					{
						"astId": 5,
						"contract": "Patika-Solidity/mappings.sol:Mapping",
						"label": "registered",
						"offset": 0,
						"slot": "0",
						"type": "t_mapping(t_address,t_bool)"
					},
					{
						"astId": 9,
						"contract": "Patika-Solidity/mappings.sol:Mapping",
						"label": "favNums",
						"offset": 0,
						"slot": "1",
						"type": "t_mapping(t_address,t_int256)"
					}
				],
				"types": {
					"t_address": {
						"encoding": "inplace",
						"label": "address",
						"numberOfBytes": "20"
					},
					"t_bool": {
						"encoding": "inplace",
						"label": "bool",
						"numberOfBytes": "1"
					},
					"t_int256": {
						"encoding": "inplace",
						"label": "int256",
						"numberOfBytes": "32"
					},
					"t_mapping(t_address,t_bool)": {
						"encoding": "mapping",
						"key": "t_address",
						"label": "mapping(address => bool)",
						"numberOfBytes": "32",
						"value": "t_bool"
					},
					"t_mapping(t_address,t_int256)": {
						"encoding": "mapping",
						"key": "t_address",
						"label": "mapping(address => int256)",
						"numberOfBytes": "32",
						"value": "t_int256"
					}
				}
			},
			"userdoc": {
				"kind": "user",
				"methods": {},
				"version": 1
			}
		}
	}
}